:04000000BEEF02F05D
:0600080057821CEF23F0FB
:100018005780D8CF43F0E8CF44F0E0CF45F0D9CFB0
:1000280046F0DACF47F0F288D59EF29400019E4B55
:100038009F2B9FBF29EF00F0310E9E5D750E9F59D3
:10004800D8A029EF00F02BEF00F02FEF00F0270EDB
:100058009F6F110E9E6F010E8A27000E8B238C2333
:100068008D238D518C110BE1E90E8A5DFD0E8B59A4
:10007800D8A041EF00F043EF00F04BEF00F0710E15
:100088008A6F940E8B6F000E8C6F000E8D6FF28C42
:10009800B42BB32BE74BE82BE8BF5CEF00F0210E45
:1000A800E75D4E0EE859D8A05CEF00F05EEF00F077
:1000B80062EF00F0000EE86F970EE76F080E301839
:1000C800D8A469EF00F06BEF00F0B2EF00F08EEF0C
:1000D80000F0280E1F6473EF00F075EF00F0A7EF33
:1000E80000F00468A7EF00F0280E1F647EEF00F010
:1000F80080EF00F0A7EF00F00568A7EF00F0280EEA
:100108001F6489EF00F08BEF00F0A7EF00F006689E
:10011800A7EF00F02D50416E426A4250000AD8B451
:1001280098EF00F0A7EF00F04150000AD8B46DEF47
:1001380000F0010AD8B478EF00F0030AD8B483EFCE
:1001480000F0A7EF00F01F2A500E1F64AEEF00F07A
:10015800B0EF00F0B2EF00F0000E1F6E000E206E40
:10016800090E2064BAEF00F0BCEF00F0BEEF00F01B
:10017800DFEF00F0826820C0C1F00001C151C12545
:10018800C16F8150E10B816E8150C125816E1A0EBD
:10019800E82EFED700D0010E2024D96EDA6A000EB0
:1001A800DA22DF50826EC80E00D0E82EFDD78268B2
:1001B800202AB4EF00F00001DB51D8A4E6EF00F0EC
:1001C800E8EF00F02FEF01F0DC05D8A4EEEF00F027
:1001D800F0EF00F02FEF01F08150E10B816E320E4D
:1001E800B961F9EF00F0FBEF00F014EF01F0815076
:1001F800E10B816E8150180F816EC80E00D0E82E79
:10020800FDD78150E10B816E81501A0F816EC80EA7
:1002180000D0E82EFDD78150E10B816E0001B92B8B
:10022800310EB9651AEF01F01CEF01F02FEF01F064
:100238008150E10B816EC80E00D0E82EFDD7000179
:10024800B92B640EB9652BEF01F02DEF01F02FEFFC
:1002580001F0000EB96F9E4B9F2B9FBF3DEF01F041
:10026800310E9E5D750E9F59D8A03DEF01F03FEF0E
:1002780001F043EF01F0270E9F6F110E9E6FDB51C7
:10028800D8A449EF01F04BEF01F02DEF02F0DC515B
:10029800D8A451EF01F053EF01F02DEF02F00D0E4D
:1002A800486E8150E10B816E07EF02F00001BF51EB
:1002B800D8B461EF01F063EF01F024EF02F0815050
:1002C8001409816EC80E00D0E82EFDD724EF02F085
:1002D80024EF02F00001BA51D8B475EF01F077EFBE
:1002E80001F024EF02F081501609816E66EF01F0EB
:1002F8000001BD51D8A483EF01F085EF01F08DEF27
:1003080001F01750D8B48BEF01F08DEF01F024EF16
:1003180002F0BD51D8B493EF01F095EF01F09CEFD6
:1003280001F081501809816EC80E00D0E82EFDD763
:100338001750D8B4A2EF01F0A4EF01F024EF02F0B7
:10034800320E1660AAEF01F0ACEF01F0B6EF01F043
:10035800162A81501809816EC80E00D0E82EFDD7E4
:1003680024EF02F0162A640E1664BDEF01F0BFEF09
:1003780001F06CEF01F0000E166E24EF02F00001A0
:10038800BE51D8A4CAEF01F0CCEF01F0D4EF01F0D0
:100398001850D8B4D2EF01F0D4EF01F024EF02F0F6
:1003A8001850D8B4DAEF01F0DCEF01F0F9EF01F002
:1003B800320E1660E2EF01F0E4EF01F0EEEF01F02B
:1003C800162A81501A09816EC80E00D0E82EFDD772
:1003D800F9EF01F0162A640E1664F5EF01F0F7EF55
:1003E80001F0F9EF01F0000E166E0001BE51D8B40D
:1003F80000EF02F002EF02F024EF02F081501A0938
:10040800816E66EF01F04850416E426A4250000A20
:10041800D8B411EF02F024EF02F041500A0AD8B420
:100428005AEF01F0010AD8B46EEF01F0070AD8B408
:100438007CEF01F0010AD8B4C3EF01F024EF02F019
:1004480048060A0E48602BEF02F02DEF02F055EF38
:1004580001F00001DB05D8A434EF02F036EF02F01A
:1004680086EF02F08150E10B816E320EBC613FEFE6
:1004780002F041EF02F06BEF02F08150140F816E31
:10048800C80E00D0E82EFDD78150E10B816E815057
:10049800160F816EC80E00D0E82EFDD78150E10BF3
:1004A800816E8150180F816EC80E00D0E82EFDD7DE
:1004B8008150E10B816E81501A0F816EC80E00D0F9
:1004C800E82EFDD78150E10B816E0001BC2B310E67
:1004D800BC6571EF02F073EF02F086EF02F0815015
:1004E800E10B816EC80E00D0E82EFDD70001BC2BB1
:1004F800640EBC6582EF02F084EF02F086EF02F032
:10050800000EBC6F9E4B9F2B9FBF94EF02F0310EE5
:100518009E5D750E9F59D8A094EF02F096EF02F0F9
:100528009AEF02F0270E9F6F110E9E6F9FBFA6EFE6
:1005380002F0110E9E5D270E9F59D8A0A6EF02F07B
:10054800A8EF02F0ABEF02F0D180ACEF02F0D1904F
:10055800D58E000ED76E060ED66EF28C47C0DAFF27
:1005680046C0D9FF45C0E0FF44C0E8FF43C0D8FFFC
:1005780057901000FCEF23F0000E00019F6F000E53
:100588009E6F000E266E080E2664CDEF02F0CFEFA8
:1005980002F0EBEF02F006EF03F0000E00019F6F90
:1005A800000E9E6FD1C081FFC80E00D0E82EFDD787
:1005B8000001D151020FD16F140ED119D8A4E7EF61
:1005C80002F0E9EF02F0EBEF02F0000ED16F80B617
:1005D800F0EF02F0F2EF02F0D1EF02F0F9EF02F0E3
:1005E800000E00019F6F000E9E6F80A6FEEF02F0C6
:1005F80000EF03F0F4EF02F082508224826E262A84
:10060800C7EF02F0826814EF03F01A0E816EC80E6D
:1006180000D0E82EFDD7000E00019F6F000E9E6FE0
:1006280080B819EF03F01BEF03F009EF03F022EF96
:1006380003F0000E00019F6F000E9E6F80A827EF49
:1006480003F029EF03F01DEF03F03CEF03F01A0E5F
:10065800816EC80E00D0E82EFDD7180E816EC80E28
:1006680000D0E82EFDD7000E00019F6F000E9E6F90
:1006780080B841EF03F043EF03F02BEF03F04AEFAC
:1006880003F0000E00019F6F000E9E6F80A84FEFD1
:1006980003F051EF03F045EF03F06AEF03F01A0E91
:1006A800816EC80E00D0E82EFDD7180E816EC80ED8
:1006B80000D0E82EFDD7160E816EC80E00D0E82EA9
:1006C800FDD7000E00019F6F000E9E6F80B86FEF80
:1006D80003F071EF03F053EF03F078EF03F0000E2F
:1006E80000019F6F000E9E6F80A87DEF03F07FEFE3
:1006F80003F073EF03F09EEF03F01A0E816EC80E3D
:1007080000D0E82EFDD7180E816EC80E00D0E82E56
:10071800FDD7160E816EC80E00D0E82EFDD7140E38
:10072800816EC80E00D0E82EFDD7000E00019F6F25
:10073800000E9E6F80B8A3EF03F0A5EF03F081EFE2
:1007480003F0ACEF03F0000E00019F6F000E9E6FE8
:1007580080A8B1EF03F0B3EF03F0A7EF03F0000EAA
:1007680000019F6F000E9E6F010E4D6E010E09EC89
:100778001CF08268B6EF04F0920E016E01C082FF91
:10078800000E816EC80E00D0E82EFDD71E0E816EB9
:10079800840E026E02C082FF020E816EC80E00D067
:1007A800E82EFDD71E0E816EF90E036E03C082FF80
:1007B800040E816EC80E00D0E82EFDD71E0E816E85
:1007C800000E00019F6F000E9E6F1304D8A4EFEF78
:1007D80003F0F1EF03F027EF04F0000E9F6F000E17
:1007E8009E6FAB0E056E05C082FF080E816EC80EA7
:1007F80000D0E82EFDD71E0E816EA30E066E06C031
:1008080082FF0A0E816EC80E00D0E82EFDD71E0E9C
:10081800816E920E086E08C082FF0E0E816EC80EA1
:1008280000D0E82EFDD71E0E816E820E096E09C01B
:1008380082FF100E816EC80E00D0E82EFDD71E0E66
:10084800816EB6EF04F0000E9F6F000E9E6F280EAB
:100858008219D8A432EF04F034EF04F070EF04F0FA
:10086800F90E046E04C082FF060E816EC80E00D019
:10087800E82EFDD71E0E816E800E056E05C082FF24
:10088800080E816EC80E00D0E82EFDD71E0E816EB0
:10089800830E066E06C082FF0A0E816EC80E00D057
:1008A800E82EFDD71E0E816EA40E086E08C082FFCA
:1008B8000E0E816EC80E00D0E82EFDD71E0E816E7A
:1008C800C00E096E09C082FF100E816EC80E00D0DE
:1008D800E82EFDD71E0E816E100E00018219D8A4D5
:1008E80078EF04F07AEF04F0B6EF04F0F90E046E36
:1008F80004C082FF060E816EC80E00D0E82EFDD718
:100908001E0E816E800E056E05C082FF080E816E78
:10091800C80E00D0E82EFDD71E0E816E920E066E10
:1009280006C082FF0A0E816EC80E00D0E82EFDD7E1
:100938001E0E816EA40E086E08C082FF0E0E816E18
:10094800C80E00D0E82EFDD71E0E816EC00E096EAF
:1009580009C082FF100E816EC80E00D0E82EFDD7A8
:1009680023EF04F080BABBEF04F0BDEF04F0C0EF52
:1009780003F0C4EF04F0000E00019F6F000E9E6F9D
:1009880080AAC9EF04F0CBEF04F0BFEF04F0010E2A
:100998004D6E020E09EC1CF00B0E526E260E516EB7
:1009A8005E0EE82EFED7512EFCD7522EFAD7010E36
:1009B8004D6E030E09EC1CF08CEF05F0000E0001E3
:1009C8009F6F000E9E6F920E016E01C082FF000E97
:1009D800816EC80E00D0E82EFDD71E0E816E840EE3
:1009E800026E02C082FF020E816EC80E00D0E82E91
:1009F800FDD71E0E816EF90E036E03C082FF040E32
:100A0800816EC80E00D0E82EFDD71E0E816E000E36
:100A180000019F6F000E9E6F1304D8A416EF05F017
:100A280018EF05F04AEF05F0AB0E056E05C082FF22
:100A3800080E816EC80E00D0E82EFDD71E0E816EFE
:100A4800A30E066E06C082FF0A0E816EC80E00D085
:100A5800E82EFDD71E0E816E920E086E08C082FF2A
:100A68000E0E816EC80E00D0E82EFDD71E0E816EC8
:100A7800820E096E09C082FF100E816EC80E00D06A
:100A8800E82EFDD71E0E816E8CEF05F0000E9F6FCD
:100A9800000E9E6F69510F0BACEC1FF0066E06C07E
:100AA80082FF0A0E816EC80E00D0E82EFDD71E0EFA
:100AB800816E000169390F0B0F0BACEC1FF0056E4E
:100AC80005C082FF080E816EC80E00D0E82EFDD743
:100AD8001E0E816E00016A390F0B0F0BACEC1FF074
:100AE800096E09C082FF100E816EC80E00D0E82E74
:100AF800FDD71E0E816E00016A390F0B0F0BACEC8F
:100B08001FF0086E08C082FF0E0E816E42EF05F0DE
:100B180080BA91EF05F093EF05F0E2EF04F09AEF59
:100B280005F0000E00019F6F000E9E6F80AA9FEFD8
:100B380005F0A1EF05F095EF05F0020E4D6E010EE0
:100B480009EC1CF0A4EF06F0000E00019F6F000EE8
:100B58009E6F920E016E01C082FF000E816EC80E5C
:100B680000D0E82EFDD71E0E816E840E026E02C0E4
:100B780082FF020E816EC80E00D0E82EFDD71E0E31
:100B8800816EA40E036E03C082FF040E816EC80E30
:100B980000D0E82EFDD71E0E816E1204D8A4D7EF20
:100BA80005F0D9EF05F010EF06F0000E00019F6F79
:100BB800000E9E6FAB0E056E05C082FF080E816E9B
:100BC800C80E00D0E82EFDD71E0E816EA30E066E4D
:100BD80006C082FF0A0E816EC80E00D0E82EFDD72F
:100BE8001E0E816E920E086E08C082FF0E0E816E78
:100BF800C80E00D0E82EFDD71E0E816E820E096E3B
:100C080009C082FF100E816EC80E00D0E82EFDD7F5
:100C18001E0E816EA4EF06F0280E00017A19D8A4E2
:100C280018EF06F01AEF06F05AEF06F0000E9F6F65
:100C3800000E9E6FF90E046E04C082FF060E816ED0
:100C4800C80E00D0E82EFDD71E0E816E800E056EF0
:100C580005C082FF080E816EC80E00D0E82EFDD7B1
:100C68001E0E816E830E066E06C082FF0A0E816E0E
:100C7800C80E00D0E82EFDD71E0E816EA40E086E99
:100C880008C082FF0E0E816EC80E00D0E82EFDD778
:100C98001E0E816EC00E096E09C082FF100E816E95
:100CA800C80E00D0E82EFDD71E0E816E100E000172
:100CB8007A19D8A462EF06F064EF06F0A4EF06F004
:100CC800000E9F6F000E9E6FF90E046E04C082FF27
:100CD800060E816EC80E00D0E82EFDD71E0E816E5E
:100CE800800E056E05C082FF080E816EC80E00D00A
:100CF800E82EFDD71E0E816E920E066E06C082FF8C
:100D08000A0E816EC80E00D0E82EFDD71E0E816E29
:100D1800A40E086E08C082FF0E0E816EC80E00D0A9
:100D2800E82EFDD71E0E816EC00E096E09C082FF27
:100D3800100E816EC80E00D0E82EFDD70CEF06F01D
:100D480080BAA9EF06F0ABEF06F0A8EF05F0B2EF16
:100D580006F0000E00019F6F000E9E6F80AAB7EF8D
:100D680006F0B9EF06F0ADEF06F0020E4D6E020E7A
:100D780009EC1CF01A0E526E5E0E516E6E0EE82EC5
:100D8800FED7512EFCD7522EFAD700D0020E4D6E48
:100D9800030E09EC1CF084EF07F0000E00019F6FB2
:100DA800000E9E6F920E016E01C082FF000E816ED2
:100DB800C80E00D0E82EFDD71E0E816E840E026E7E
:100DC80002C082FF020E816EC80E00D0E82EFDD749
:100DD8001E0E816EA40E036E03C082FF040E816E88
:100DE800C80E00D0E82EFDD71E0E816E1204D8A4BE
:100DF80000EF07F002EF07F039EF07F0000E0001EF
:100E08009F6F000E9E6FAB0E056E05C082FF080E29
:100E1800816EC80E00D0E82EFDD71E0E816EA30E7F
:100E2800066E06C082FF0A0E816EC80E00D0E82E3C
:100E3800FDD71E0E816E920E086E08C082FF0E0E40
:100E4800816EC80E00D0E82EFDD71E0E816E820E70
:100E5800096E09C082FF100E816EC80E00D0E82E00
:100E6800FDD71E0E816E84EF07F0000E00019F6F04
:100E7800000E9E6F60510F0BACEC1FF0066E06C0A3
:100E880082FF0A0E816EC80E00D0E82EFDD71E0E16
:100E9800816E000160390F0B0F0BACEC1FF0056E73
:100EA80005C082FF080E816EC80E00D0E82EFDD75F
:100EB8001E0E816E000161510F0BACEC1FF0096E24
:100EC80009C082FF100E816EC80E00D0E82EFDD733
:100ED8001E0E816E000161390F0B0F0BACEC1FF079
:100EE800086E08C082FF0E0E816EC80E00D0E82E74
:100EF800FDD71E0E816E000E00019F6F000E9E6FC3
:100F080080BA89EF07F08BEF07F0D1EF06F092EF88
:100F180007F0000E00019F6F000E9E6F80AA97EFEA
:100F280007F099EF07F08DEF07F0000E00019F6FB3
:100F3800000E9E6F09EF08F0000E256E060E256460
:100F4800A8EF07F0AAEF07F0ACEF07F009EF08F0F9
:100F580025C0A9FFC4EF07F0320EA86EEDEF07F029
:100F6800630EA86EEDEF07F00F0EA86EEDEF07F019
:100F7800000EA86EEDEF07F0100EA86EEDEF07F06B
:100F88002550516E526A5250000AD8B4CEEF07F07D
:100F9800EDEF07F05150000AD8B4B0EF07F0010A9E
:100FA800D8B4B4EF07F0030AD8B4B8EF07F0010AD1
:100FB800D8B4B0EF07F0070AD8B4BCEF07F0010ABD
:100FC800D8B4B0EF07F0030AD8B4C0EF07F0EDEFDC
:100FD80007F0000E00019F6F000E9E6FA69CA69E54
:100FE800A696A684F29E550EA76EAA0EA76EA68296
:100FF800F28EF28CA694A6B204EF08F006EF08F081
:10100800FFEF07F0252AA2EF07F080BA0EEF08F0ED
:1010180010EF08F0A0EF07F017EF08F0000E00013E
:101028009F6F000E9E6F80AA1CEF08F01EEF08F05D
:1010380012EF08F0000E256E070E256426EF08F063
:1010480028EF08F02AEF08F085EF08F0000E0001FD
:101058009F6F000E9E6F25C0A9FFA69EA69CA68026
:10106800A6B039EF08F03BEF08F034EF08F059EF7D
:1010780008F0A8CF40F082EF08F0A8CF3AF082EF4E
:1010880008F0A8CF38F082EF08F0A8CF3CF082EF44
:1010980008F0A8CF3EF082EF08F0A8CF33F082EF37
:1010A80008F0A8CF2FF082EF08F02550516E526A51
:1010B8005250000AD8B463EF08F082EF08F051509C
:1010C800000AD8B43DEF08F0010AD8B441EF08F09F
:1010D800030AD8B445EF08F0010AD8B449EF08F07C
:1010E800070AD8B44DEF08F0010AD8B451EF08F058
:1010F800030AD8B455EF08F082EF08F0252A20EF4C
:1011080008F0000E256E000E00019F6F000E9E6F06
:101118001200F288000E00019F6F000E9E6F080EED
:10112800306499EF08F09BEF08F09DEF08F0000E8F
:10113800306E3050D8A4A3EF08F0A5EF08F078EF90
:1011480009F0000E9F6F000E9E6F3E50D8A4AFEFBF
:1011580008F0B1EF08F01DEF09F03B04D8B4B7EF81
:1011680008F0B9EF08F01DEF09F03904D8B4BFEF63
:1011780008F0C1EF08F01DEF09F03D04D8A4C7EF4F
:1011880008F0C9EF08F0CBEF08F01DEF09F03F04B5
:10119800D8A4D1EF08F0D3EF08F0E5EF08F0402A23
:1011A800C70E4064DAEF08F0DCEF08F0DEEF08F075
:1011B800000E406E40C049F0000E1BEC24F0000EFB
:1011C8003F6E020E3F18D8A4ECEF08F0EEEF08F0DF
:1011D80008EF09F040064050D8B4F5EF08F0F7EFF3
:1011E80008F0FFEF08F0C70E4064FDEF08F0FFEFCE
:1011F80008F001EF09F0C70E406E40C049F0000E3C
:101208001BEC24F0000E3F6E040E3F18D8A40FEF1D
:1012180009F011EF09F01DEF09F0000E0001DC6F75
:10122800000EDB6F40C049F0000E1BEC24F0000EEE
:101238003F6E3E04D8A423EF09F025EF09F060EFD4
:1012480009F03F04D8A42BEF09F02DEF09F03AEF8D
:1012580009F0332A630E336434EF09F036EF09F0EE
:1012680038EF09F0630E336E000E3F6E020E3F1822
:10127800D8A441EF09F043EF09F050EF09F0330625
:101288000F0E33604AEF09F04CEF09F04EEF09F00A
:101298000F0E336E000E3F6E040E3F18D8A457EFA2
:1012A80009F059EF09F060EF09F033C049F0050E75
:1012B8001BEC24F0000E3F6E080E3F18D8A467EF11
:1012C80009F069EF09F06BEF09F0000E3F6E100EA0
:1012D8003F18D8A472EF09F074EF09F078EF09F01D
:1012E800080E306E000E3F6E3004D8A47EEF09F071
:1012F80080EF09F0DBEF09F0000E00019F6F000E90
:101308009E6F3F04D8A48BEF09F08DEF09F09AEF98
:1013180009F03A2A630E3A6494EF09F096EF09F05F
:1013280098EF09F00F0E3A6E000E3F6E020E3F184E
:10133800D8A4A1EF09F0A3EF09F0B0EF09F03A063D
:101348000F0E3A60AAEF09F0ACEF09F0AEEF09F022
:10135800630E3A6E000E3F6E040E3F18D8A4B7EF26
:1013680009F0B9EF09F0BCEF09F0302A000E3F6E22
:10137800080E3F18D8A4C3EF09F0C5EF09F0CEEF67
:1013880009F03AC049F0010E1BEC24F0010E306E52
:10139800000E3F6E100E3F18D8A4D5EF09F0D7EF16
:1013A80009F0DBEF09F0000E306E000E3F6E020E02
:1013B8003018D8A4E2EF09F0E4EF09F03FEF0AF0A3
:1013C800000E00019F6F000E9E6F3F04D8A4EFEF40
:1013D80009F0F1EF09F0FEEF09F0382A630E3864DE
:1013E800F8EF09F0FAEF09F0FCEF09F0000E386E9B
:1013F800000E3F6E020E3F18D8A405EF0AF007EF63
:101408000AF014EF0AF038060F0E38600EEF0AF0F3
:1014180010EF0AF012EF0AF0630E386E000E3F6EFE
:10142800040E3F18D8A41BEF0AF01DEF0AF020EFB6
:101438000AF0302A000E3F6E080E3F18D8A427EF96
:101448000AF029EF0AF032EF0AF038C049F0020E2C
:101458001BEC24F0010E306E000E3F6E100E3F188C
:10146800D8A439EF0AF03BEF0AF03FEF0AF0000E7C
:10147800306E000E3F6E030E3018D8A446EF0AF007
:1014880048EF0AF0A3EF0AF0000E00019F6F000E6C
:101498009E6F3F04D8A453EF0AF055EF0AF062EFAD
:1014A8000AF03C2A630E3C645CEF0AF05EEF0AF037
:1014B80060EF0AF0000E3C6E000E3F6E020E3F1801
:1014C800D8A469EF0AF06BEF0AF078EF0AF03C064F
:1014D8000F0E3C6072EF0AF074EF0AF076EF0AF034
:1014E800630E3C6E000E3F6E040E3F18D8A47FEFCB
:1014F8000AF081EF0AF084EF0AF0302A000E3F6EFE
:10150800080E3F18D8A48BEF0AF08DEF0AF096EF7B
:101518000AF03CC049F0030E1BEC24F0010E306EBB
:10152800000E3F6E100E3F18D8A49DEF0AF09FEFF3
:101538000AF0A3EF0AF0000E306E000E3F6E040EA4
:101548003018D8A4AAEF0AF0ACEF0AF00BEF0BF0B2
:10155800000E00019F6F000E9E6F3F04D8B4B7EFD6
:101568000AF0B9EF0AF0C2EF0AF0020E3F18D8A449
:10157800C0EF0AF0C2EF0AF0E0EF0AF03E50D8A43C
:10158800C8EF0AF0CAEF0AF0DCEF0AF0010E3E6E6F
:10159800050EA96EA69EA69CA680A6B0D6EF0AF058
:1015A800D8EF0AF0D1EF0AF0A8CF33F0DEEF0AF057
:1015B800000E3E6E000E3F6E040E3F18D8A4E7EFF3
:1015C8000AF0E9EF0AF0ECEF0AF0302A000E3F6E5D
:1015D800080E3F18D8A4F3EF0AF0F5EF0AF0FEEF73
:1015E8000AF03EC049F0040E1BEC24F0010E306EE8
:1015F800000E3F6E100E3F18D8A405EF0BF007EF52
:101608000BF00BEF0BF0000E306E000E3F6E050E68
:101618003018D8A412EF0BF014EF0BF06FEF0BF0AB
:10162800000E00019F6F000E9E6F3F04D8A41FEFAD
:101638000BF021EF0BF02EEF0BF0332A630E33641F
:1016480028EF0BF02AEF0BF02CEF0BF0000E336EA7
:10165800000E3F6E020E3F18D8A435EF0BF037EF9F
:101668000BF044EF0BF033060F0E33603EEF0BF038
:1016780040EF0BF042EF0BF0630E336E000E3F6E3F
:10168800040E3F18D8A44BEF0BF04DEF0BF050EFC2
:101698000BF0302A000E3F6E080E3F18D8A457EF03
:1016A8000BF059EF0BF062EF0BF033C049F0050E69
:1016B8001BEC24F0010E306E000E3F6E100E3F182A
:1016C800D8A469EF0BF06BEF0BF06FEF0BF0000E87
:1016D800306E000E3F6E060E3018D8A476EF0BF071
:1016E80078EF0BF0EDEF0BF0000E00019F6F000E8E
:1016F8009E6F3F04D8A483EF0BF085EF0BF09BEFB0
:101708000BF02F2A140E2F608CEF0BF08EEF0BF0DE
:101718008FEF0BF02F2A280E2F6495EF0BF097EF21
:101728000BF099EF0BF0140E2F6E000E3F6E020EA9
:101738003F18D8A4A2EF0BF0A4EF0BF0C2EF0BF008
:101748002F06150E2F60ABEF0BF0ADEF0BF0AEEFE1
:101758000BF02F062F50D8B4B4EF0BF0B6EF0BF008
:10176800BEEF0BF0280E2F64BCEF0BF0BEEF0BF0B2
:10177800C0EF0BF0140E2F6E000E3F6E040E3F18D4
:10178800D8A4C9EF0BF0CBEF0BF0CEEF0BF0302A5B
:10179800000E3F6E080E3F18D8A4D5EF0BF0D7EF18
:1017A8000BF0E0EF0BF02FC049F0030E1BEC24F018
:1017B800010E306E000E3F6E100E3F18D8A4E7EFF2
:1017C8000BF0E9EF0BF0EDEF0BF0000E306E000EB2
:1017D8003F6E070E3018D8A4F4EF0BF0F6EF0BF0BD
:1017E800B6EF0CF0000E00019F6F000E9E6F3F04D5
:1017F800D8B401EF0CF003EF0CF00CEF0CF0020E74
:101808003F18D8A40AEF0CF00CEF0CF01CEF0CF00A
:101818002E50D8A412EF0CF014EF0CF018EF0CF0C7
:10182800010E2E6E1AEF0CF0000E2E6E000E3F6E9B
:10183800040E3F18D8A423EF0CF025EF0CF029EF85
:101848000CF0010E306E000E3F6E080E3F18D8A443
:1018580030EF0CF032EF0CF0A9EF0CF02E04D8A406
:1018680038EF0CF03AEF0CF0A9EF0CF0320E406EA6
:10187800630E3A6E0F0E386E320E3C6E000E3E6EE0
:10188800320E336E100E2F6E000E2E6E000E296E65
:101898002950D8A452EF0CF054EF0CF056EF0CF08E
:1018A80040C0DAF02904D8A45CEF0CF05EEF0CF02D
:1018B80060EF0CF03AC0DAF0020E2918D8A467EFEE
:1018C8000CF069EF0CF06BEF0CF038C0DAF0030E97
:1018D8002918D8A472EF0CF074EF0CF076EF0CF026
:1018E8003CC0DAF0040E2918D8A47DEF0CF07FEF85
:1018F8000CF081EF0CF03EC0DAF0050E2918D8A4E0
:1019080088EF0CF08AEF0CF08CEF0CF033C0DAF0B3
:10191800060E2918D8A493EF0CF095EF0CF097EF6A
:101928000CF02FC0DAF0DAC049F029501BEC24F093
:10193800292A060E2964A3EF0CF0A5EF0CF04CEF52
:101948000CF0010E306E000E3F6E100E3F18D8A43A
:10195800B0EF0CF0B2EF0CF0B6EF0CF0000E306EFA
:10196800000E3F6E080E3018D8A4BDEF0CF0BFEF84
:101978000CF0AFEF0DF0000E00019F6F000E9E6F90
:10198800040E3F18D8A4CBEF0CF0CDEF0CF0DAEF33
:101998000CF02D2A020E2D64D4EF0CF0D6EF0CF0CB
:1019A800D8EF0CF0000E2D6E000E3F6E3F04D8A449
:1019B800E0EF0CF0E2EF0CF026EF0DF00BEF0DF07E
:1019C8002C2A090E2C64EBEF0CF0EDEF0CF024EF51
:1019D8000DF0000E2C6E24EF0DF02B2A090E2B644F
:1019E800F8EF0CF0FAEF0CF024EF0DF0000E2B6E70
:1019F80024EF0DF02A2A090E2A6405EF0DF007EFEF
:101A08000DF024EF0DF0000E2A6E24EF0DF02D508E
:101A18004B6E4C6A4C50000AD8B415EF0DF024EF09
:101A28000DF04B50000AD8B4E4EF0CF0010AD8B41A
:101A3800F1EF0CF0030AD8B4FEEF0CF024EF0DF030
:101A4800000E3F6E020E3F18D8A42DEF0DF02FEFB9
:101A58000DF073EF0DF058EF0DF02C06090E2C6405
:101A680038EF0DF03AEF0DF071EF0DF0090E2C6E16
:101A780071EF0DF02B06090E2B6445EF0DF047EFC3
:101A88000DF071EF0DF0090E2B6E71EF0DF02A06B7
:101A9800090E2A6452EF0DF054EF0DF071EF0DF0BE
:101AA800090E2A6E71EF0DF02D504B6E4C6A4C509A
:101AB800000AD8B462EF0DF071EF0DF04B50000A38
:101AC800D8B431EF0DF0010AD8B43EEF0DF0030A97
:101AD800D8B44BEF0DF071EF0DF0000E3F6E080E0D
:101AE8003F18D8A47AEF0DF07CEF0DF0A2EF0DF0BF
:101AF8002C04D8A482EF0DF084EF0DF0A0EF0DF0C8
:101B0800050E2B18D8A48BEF0DF08DEF0DF0A0EF7C
:101B18000DF0020E2A18D8A494EF0DF096EF0DF0F0
:101B2800A0EF0DF0010E306E000E2D6E000E2C6E23
:101B3800000E2B6E000E2A6E000E3F6E100E3F1820
:101B4800D8A4A9EF0DF0ABEF0DF0AFEF0DF0000E3C
:101B5800306E000E3F6E1200F288000E00019F6F7B
:101B6800000E9E6F6951D8A4BCEF0DF0BEEF0DF0CA
:101B7800FEEF0DF06A51D8A4C4EF0DF0C6EF0DF0DA
:101B8800FEEF0DF06B51D8A4CCEF0DF0CEEF0DF0B9
:101B9800FEEF0DF06C51D8A4D4EF0DF0D6EF0DF098
:101BA800FEEF0DF06D51D8A4DCEF0DF0DEEF0DF077
:101BB800FEEF0DF06E51D8A4E4EF0DF0E6EF0DF056
:101BC800FEEF0DF06F51D8A4ECEF0DF0EEEF0DF035
:101BD800FEEF0DF07051D8A4F4EF0DF0F6EF0DF014
:101BE800FEEF0DF07151D8B4FCEF0DF0FEEF0DF0E3
:101BF80066EF0EF06929D8A404EF0EF006EF0EF098
:101C080046EF0EF06A29D8A40CEF0EF00EEF0EF096
:101C180046EF0EF06B29D8A414EF0EF016EF0EF075
:101C280046EF0EF06C29D8A41CEF0EF01EEF0EF054
:101C380046EF0EF06D29D8A424EF0EF026EF0EF033
:101C480046EF0EF06E29D8A42CEF0EF02EEF0EF012
:101C580046EF0EF06F29D8A434EF0EF036EF0EF0F1
:101C680046EF0EF07029D8A43CEF0EF03EEF0EF0D0
:101C780046EF0EF07129D8B444EF0EF046EF0EF09F
:101C880066EF0EF06929D8A44CEF0EF04EEF0EF077
:101C980056EF0EF06A51D8B454EF0EF056EF0EF02E
:101CA80066EF0EF06929D8A45CEF0EF05EEF0EF037
:101CB8006AEF0EF06A51D8A464EF0EF066EF0EF0EA
:101CC8006AEF0EF0010E246E6CEF0EF0000E246E1B
:101CD8006051D8A472EF0EF074EF0EF0B4EF0EF06E
:101CE8006151D8A47AEF0EF07CEF0EF0B4EF0EF04D
:101CF8006251D8A482EF0EF084EF0EF0B4EF0EF02C
:101D08006351D8A48AEF0EF08CEF0EF0B4EF0EF00A
:101D18006451D8A492EF0EF094EF0EF0B4EF0EF0E9
:101D28006551D8A49AEF0EF09CEF0EF0B4EF0EF0C8
:101D38006651D8A4A2EF0EF0A4EF0EF0B4EF0EF0A7
:101D48006751D8A4AAEF0EF0ACEF0EF0B4EF0EF086
:101D58006851D8B4B2EF0EF0B4EF0EF01CEF0FF0EC
:101D68006029D8A4BAEF0EF0BCEF0EF0FCEF0EF02D
:101D78006129D8A4C2EF0EF0C4EF0EF0FCEF0EF00C
:101D88006229D8A4CAEF0EF0CCEF0EF0FCEF0EF0EB
:101D98006329D8A4D2EF0EF0D4EF0EF0FCEF0EF0CA
:101DA8006429D8A4DAEF0EF0DCEF0EF0FCEF0EF0A9
:101DB8006529D8A4E2EF0EF0E4EF0EF0FCEF0EF088
:101DC8006629D8A4EAEF0EF0ECEF0EF0FCEF0EF067
:101DD8006729D8A4F2EF0EF0F4EF0EF0FCEF0EF046
:101DE8006829D8B4FAEF0EF0FCEF0EF01CEF0FF0F4
:101DF8006029D8A402EF0FF004EF0FF00CEF0FF0FA
:101E08006151D8B40AEF0FF00CEF0FF01CEF0FF090
:101E18006029D8A412EF0FF014EF0FF020EF0FF0A5
:101E28006151D8A41AEF0FF01CEF0FF020EF0FF05C
:101E3800010E236E22EF0FF0000E236ED890403073
:101E4800346E3450496E4A6A050E4926000E4A22FD
:101E580037504B6E4C6A49504B5C4C50800A4D6E63
:101E68004A50800A4D58D8B03CEF0FF03EEF0FF0C3
:101E780066EF0FF03750496E4A6AFB0E34244B6EFA
:101E88004C6AFF0E4C2249504B5C4C50800A4D6EF8
:101E98004A50800A4D58D8B054EF0FF056EF0FF063
:101EA80066EF0FF0000E8A6F000E8B6F000E8C6FBE
:101EB800000E8D6F010EBF6F000E3B6E000E396E67
:101EC80068EF0FF0000EBF6F2450D8A46EEF0FF02C
:101ED80070EF0FF0D4EF0FF02350D8A476EF0FF087
:101EE80078EF0FF0D4EF0FF01D50D8A47EEF0FF06D
:101EF80080EF0FF0D4EF0FF01E50D8A486EF0FF04C
:101F080088EF0FF0D4EF0FF01A50195CD8B08FEFAC
:101F18000FF091EF0FF0AEEF0FF0000E186E1950A2
:101F28001AC049F04A6A495E000E4A5A4ABEA6EFEC
:101F38000FF04A5009E10F0E495CD8A0A6EF0FF048
:101F4800A8EF0FF0ACEF0FF0010E176EAEEF0FF029
:101F5800000E176E19501A5CD8B0B5EF0FF0B7EF36
:101F68000FF0D4EF0FF0000E176E1A5019C049F099
:101F78004A6A495E000E4A5A4ABECCEF0FF04A50F0
:101F880009E10F0E495CD8A0CCEF0FF0CEEF0FF0AF
:101F9800D2EF0FF0010E186ED4EF0FF0000E186E8E
:101FA800000E9F6F000E9E6F3750496E4A6A34507C
:101FB8004B6E4C6A050E4B26000E4C2249504B5C6A
:101FC8004C50800A4D6E4A50800A4D58D8B0EFEFF9
:101FD8000FF0F1EF0FF007EF10F08D518C110BE1BE
:101FE800710E8A5D940E8B59D8A0FDEF0FF0FFEFAC
:101FF8000FF007EF10F0010E396E010EDB6F000EC7
:10200800BF6F000E3B6EFB0E3424496E4A6AFF0E0A
:102018004A2237504B6E4C6A49504B5C4C50800AF0
:102028004D6E4A50800A4D58D8B01DEF10F01FEF82
:1020380010F035EF10F08D518C110BE1710E8A5DA7
:10204800940E8B59D8A02BEF10F02DEF10F035EF30
:1020580010F0010E3B6E010EDB6F000EBF6F000E1D
:10206800396E3E04D8A43BEF10F03DEF10F051EF6D
:1020780010F0000E3B6E000EDB6F000EBF6F000EFF
:10208800396E000E8A6F000E8B6F000E8C6F000E7B
:102098008D6F010EBA6F53EF10F0000EBA6F230464
:1020A800D8B459EF10F05BEF10F063EF10F01E504A
:1020B800D8B461EF10F063EF10F095EF10F01D50F9
:1020C800D8A469EF10F06BEF10F073EF10F0240450
:1020D800D8A471EF10F073EF10F095EF10F0964B55
:1020E800972B210E965D4E0E9759D8A07EEF10F0D3
:1020F80080EF10F084EF10F0000E976F0B0E966FC4
:10210800975109E10B0E965DD8A08DEF10F08FEF77
:1021180010F09BEF10F0010E3D6E010EDC6F9BEF8F
:1021280010F0000E976F000E966F000E3D6E2304A0
:10213800D8B4A1EF10F0A3EF10F0ABEF10F01E50E1
:10214800D8B4A9EF10F0ABEF10F0D5EF10F08E4B2C
:102158008F2B8FBFB9EF10F0210E8E5D4E0E8F5969
:10216800D8A0B9EF10F0BBEF10F0BFEF10F0000EE1
:102178008F6F100E8E6F8FBFCBEF10F08F5109E16C
:10218800100E8E5DD8A0CBEF10F0CDEF10F0DBEF86
:1021980010F0010EBD6F000E186E000E176EDBEF0B
:1021A80010F0000EBD6F000E8F6F000E8E6F2404AE
:1021B800D8B4E1EF10F0E3EF10F0EBEF10F01D50A2
:1021C800D8B4E9EF10F0EBEF10F015EF11F0904BE9
:1021D800912B91BFF9EF10F0210E905D4E0E9159A1
:1021E800D8A0F9EF10F0FBEF10F0FFEF10F0000EA1
:1021F800916F100E906F91BF0BEF11F0915109E1A3
:10220800100E905DD8A00BEF11F00DEF11F01BEF41
:1022180011F0010EBE6F000E186E000E176E1BEF48
:1022280011F0000EBE6F000E916F000E906F000E41
:102238009F6F000E9E6F1200F288000E00019F6FC4
:10224800000E9E6FFDEF13F03E50D8A42EEF11F054
:1022580030EF11F04DEF12F0010E366436EF11F049
:1022680038EF11F03AEF11F0000E366E3650D8A460
:1022780040EF11F042EF11F044EF11F0C00E036E81
:102288003604D8A44AEF11F04CEF11F04EEF11F0DC
:10229800920E036E3D50D8A454EF11F056EF11F092
:1022A80087EF11F03C0E37645CEF11F05EEF11F030
:1022B8007CEF11F03550D8A464EF11F066EF11F0FF
:1022C8006CEF11F0A30E016EE30E026EC70E036EE3
:1022D8003504D8A472EF11F074EF11F08DEF11F0FE
:1022E800A30E016EE30E026EC70E036E8DEF11F0A2
:1022F800000E516E010E526E35C053F037506CEC23
:1023080023F08DEF11F0840E016EAF0E026EAF0E4A
:10231800036E3B50D8A493EF11F095EF11F0CBEF7B
:1023280011F03950D8A49BEF11F09DEF11F0CBEFCD
:1023380011F03D50D8A4A3EF11F0A5EF11F0CBEFA9
:1023480011F04050010B286E2850D8A4AEEF11F0C0
:10235800B0EF11F0B2EF11F0C00E066E2804D8A449
:10236800B8EF11F0BAEF11F0BCEF11F0920E066E53
:10237800D89040300001D56F030E516E040E526E96
:10238800000E536ED5516CEC23F044EF12F03F046D
:10239800D8B4D1EF11F0D3EF11F0DCEF11F0020E49
:1023A8003F18D8A4DAEF11F0DCEF11F0DFEF11F0ED
:1023B800C80E0001D26F0001D251D8B4E6EF11F077
:1023C800E8EF11F01AEF12F0D207C80ED265EFEF5E
:1023D80011F0F1EF11F0F3EF11F0000ED26F405051
:1023E800010B286E000E3F6E2850D8A4FEEF11F0A6
:1023F80000EF12F002EF12F0C00E066E2804D8A407
:1024080008EF12F00AEF12F00CEF12F0920E066EBF
:10241800D8904030D56F030E516E040E526E000EE8
:10242800536ED5516CEC23F044EF12F03904D8A464
:1024380020EF12F022EF12F028EF12F00E0E046EC9
:10244800880E056E470E066E3B04D8A42EEF12F0D8
:1024580030EF12F036EF12F00E0E046E830E056E9A
:10246800A00E066E3D04D8A43CEF12F03EEF12F029
:1024780044EF12F00E0E046E920E056E2B0E066ED1
:10248800070E516E080E526E000E536E0B506CEC18
:1024980023F03E04D8A453EF12F055EF12F02EEFBC
:1024A80014F03650D8A45BEF12F05DEF12F05FEF36
:1024B80012F0C00E036E3604D8A465EF12F067EF71
:1024C80012F069EF12F0920E036E0001CE51D8A4FB
:1024D80070EF12F072EF12F0A3EF12F03C0E3764B7
:1024E80078EF12F07AEF12F098EF12F03550D8A486
:1024F80080EF12F082EF12F088EF12F0A30E016E57
:10250800E30E026EC70E036E3504D8A48EEF12F0E8
:1025180090EF12F0A9EF12F0A30E016EE30E026E17
:102528008E0E036EA9EF12F0000E516E010E526E60
:1025380035C053F037506CEC23F0A9EF12F0840E3D
:10254800016EAF0E026EAF0E036EC80E046EA00EC3
:10255800056E2B0E066E070E516E080E526E000E9B
:10256800536E33506CEC23F02EEF14F0000E9F6F77
:10257800000E9E6F120E016E0C0E026E0E0E036E92
:10258800830E046EA00E056E600E066E070E516E69
:10259800080E526E000E536E3A506CEC23F02EEF7C
:1025A80014F0000E9F6F000E9E6F120E016E0C0E3F
:1025B800026E0E0E036E880E046EC70E056E070EB1
:1025C800066E070E516E080E526E000E536E38508E
:1025D8006CEC23F02EEF14F0000E9F6F000E9E6F30
:1025E800120E016E0C0E026E0E0E036E920E046E2B
:1025F800840E056E2B0E066E070E516E080E526E77
:10260800000E536E3C506CEC23F02EEF14F0000ECD
:102618009F6F000E9E6FC60E016E870E026E2F0E04
:10262800036E880E046EE30E056E070E066E3E50AE
:10263800D8A421EF13F023EF13F027EF13F0920E35
:10264800086ECF0E096E3E04D8A42DEF13F02FEFBD
:1026580013F02EEF14F0AB0E086EA30E096E2EEFDA
:1026680014F0000E9F6F000E9E6F8C0E016EA30E6D
:10267800026E070E036EC80E046EA00E056E2B0EBA
:10268800066E070E516E080E526E000E536E3350D2
:102698006CEC23F02EEF14F0000E9F6F000E9E6F6F
:1026A800A30E016E8E0E026E8E0E036E130E2F6435
:1026B80060EF13F062EF13F090EF13F0290E2F6024
:1026C80068EF13F06AEF13F090EF13F02F50EC0F50
:1026D800276E2750010BD36FD351D8A476EF13F090
:1026E80078EF13F07AEF13F0C00E066ED305D8A476
:1026F80080EF13F082EF13F084EF13F0920E066E62
:10270800D8902730276E030E516E040E526E000EBD
:10271800536E27506CEC23F0140E2F6096EF13F0D5
:1027280098EF13F0BBEF13F0290E2F609EEF13F014
:10273800A0EF13F0BBEF13F0140E0001E36F000ECF
:10274800E46F2F50E35F000EE45BE435E431E66F9D
:10275800E331E56FE551276E040E516E050E526E9A
:10276800000E536E27506CEC23F0BF0E046E086801
:1027780009682EEF14F0000E9F6F000E9E6FA10ED9
:10278800016E840E026E8E0E036EA00E046EE30EB2
:10279800056E470E066E2E04D8A4D5EF13F0D7EFBA
:1027A80013F0DBEF13F0920E086ECF0E096E2E5069
:1027B800D8A4E1EF13F0E3EF13F02EEF14F02FEFAE
:1027C80013F0000E9F6F000E9E6F8C0E016EA00E10
:1027D800026E920E036E2C5041EC21F0046E2B50C9
:1027E80041EC21F0056E2A5041EC21F0066EBBEF5A
:1027F80013F03050E36FE46BE451000AD8B407EFEC
:1028080014F02EEF14F0E351000AD8B428EF11F0B9
:10281800010AD8B4BAEF12F0030AD8B4D5EF12F00F
:10282800010AD8B4F0EF12F0070AD8B40BEF13F08E
:10283800010AD8B435EF13F0030AD8B450EF13F0F7
:10284800010AD8B4BFEF13F00F0AD8B4E5EF13F0BC
:102858002EEF14F0000E00019F6F000E9E6F120005
:10286800B5EC1DF0000E00019F6F000E9E6FF28800
:10287800D59E8DEC08F0D58E020E1C6446EF14F040
:1028880048EF14F05DEF14F0020E1B644EEF14F0E5
:1028980050EF14F05DEF14F0000E1C6E000E1B6E6E
:1028A800000E0001956F000E946F000E936F000EDE
:1028B800926F000194519511D8A465EF14F067EF59
:1028C80014F074EF14F092519311D8A46EEF14F031
:1028D80070EF14F074EF14F0000E956F010E946F02
:1028E8001C50D8A47AEF14F07CEF14F096EF14F093
:1028F800955109E1020E945DD8A085EF14F087EF99
:1029080014F096EF14F0944B952B955109E1C90EEC
:10291800945DD8A092EF14F094EF14F096EF14F0B1
:10292800010E1C6E020E1C18D8A49DEF14F09FEF28
:1029380014F0B5EF14F094519511D8B4A6EF14F033
:10294800A8EF14F0B5EF14F092519311D8A4AFEF9B
:1029580014F0B1EF14F0B5EF14F0000E936F010E00
:10296800926F1B50D8A4BBEF14F0BDEF14F0E0EF4A
:1029780014F0935109E1020E925DD8A0C6EF14F04D
:10298800C8EF14F0E0EF14F0020E1C18D8A4CFEF33
:1029980014F0D1EF14F0E0EF14F0924B932B935115
:1029A80009E1C90E925DD8A0DCEF14F0DEEF14F057
:1029B800E0EF14F0010E1B6E020E1B18D8A4E7EF0F
:1029C80014F0E9EF14F0F5EF14F0000E1C6E000E91
:1029D8001B6E000E956F000E946F000E936F000E25
:1029E800926F000E9F6F000E9E6F3F50D8A4FFEFAE
:1029F80014F001EF15F008EF15F092869288928A8C
:102A0800BCEC1EF047EF15F0B82B000EE26F000E7D
:102A1800E16F000E9D6F000E9C6F3F50D8B417EF0A
:102A280015F019EF15F047EF15F03F04D8B41FEF74
:102A380015F021EF15F047EF15F0020E3F18D8B446
:102A480028EF15F02AEF15F047EF15F0040E3F18A0
:102A5800D8B431EF15F033EF15F047EF15F0080E45
:102A68003F18D8B43AEF15F03CEF15F047EF15F0E2
:102A7800100E3F18D8B443EF15F045EF15F047EFA7
:102A880015F0000E3F6EFA0E0001B8654EEF15F016
:102A980050EF15F054EF15F0000EB86F000E3F6EB2
:102AA80092969298929A20EC11F01AC056F0D8900B
:102AB80056323C0E566463EF15F065EF15F0ACEF37
:102AC80015F00001E8BF72EF15F0E85109E1650E55
:102AD800E75DD8A072EF15F074EF15F0ACEF15F0C4
:102AE800000EB46FD59EF29A929080909280010E5B
:102AF8004D6E010E09EC1CF0010E4D6E020E09EC34
:102B08001CF0D58EF288F28AC70E0001B4658FEFEB
:102B180015F091EF15F088EF15F0F29A92908090E9
:102B28009280010E4D6E030E09EC1CF03CEC17F080
:102B3800D58EF288F28A000E1C6E000E1B6E000EF7
:102B48000001956F000E946F000E936F000E926F48
:102B580019C056F0D89056323C0E5664B6EF15F0B0
:102B6800B8EF15F007EF16F00001E8BFC5EF15F054
:102B7800E85109E1650EE75DD8A0C5EF15F0C7EF8C
:102B880015F007EF16F0B351D8A4CDEF15F0CFEF3D
:102B980015F007EF16F0000EB36FD59EF29A9292D9
:102BA80080929282020E4D6E010E09EC1CF0020E0C
:102BB8004D6E020E09EC1CF0D58EF288F28AC70E13
:102BC8000001B365EAEF15F0ECEF15F0E3EF15F04F
:102BD800F29A929280929282020E4D6E030E09EC46
:102BE8001CF03CEC17F0D58EF288F28A000E1C6EB1
:102BF800000E1B6E000E0001956F000E946F000E04
:102C0800936F000E926F1C04D8A40DEF16F00FEF0F
:102C180016F01AEF16F0F288D59EF29A010E4D6E54
:102C2800030E09EC1CF0D58EF288F28A1B04D8A496
:102C380020EF16F022EF16F02DEF16F0F29AF28838
:102C4800D59E020E4D6E030E09EC1CF0D58EF2884F
:102C5800F28A000194059511D8A435EF16F037EFE4
:102C680016F042EF16F0F29AF288D59E010E4D6EDC
:102C7800020E09EC1CF0D58EF288F28A000192054A
:102C88009311D8A44AEF16F04CEF16F057EF16F050
:102C9800F29AF288D59E020E4D6E020E09EC1CF0D7
:102CA800D58EF288F28A000E00019F6F000E9E6F8B
:102CB8003CEC17F00001E8BF6BEF16F0E85109E1B2
:102CC800970EE75DD8A06BEF16F06DEF16F076EF74
:102CD80016F0B0EC0DF0F1EC19F0000E0001E86F01
:102CE800000EE76FC70E40647CEF16F07EEF16F01B
:102CF8008CEF16F0000EA96EA69EA69CA680A6B024
:102D080088EF16F08AEF16F083EF16F0A8CF40F0A0
:102D18000E0E3A6492EF16F094EF16F09CEF16F050
:102D2800630E3A649AEF16F09CEF16F0AAEF16F0CD
:102D3800010EA96EA69EA69CA680A6B0A6EF16F0C8
:102D4800A8EF16F0A1EF16F0A8CF3AF00E0E3864EF
:102D5800B0EF16F0B2EF16F0BAEF16F0630E386463
:102D6800B8EF16F0BAEF16F0C8EF16F0020EA96E1B
:102D7800A69EA69CA680A6B0C4EF16F0C6EF16F0D5
:102D8800BFEF16F0A8CF38F00E0E3C64CEEF16F069
:102D9800D0EF16F0D8EF16F0630E3C64D6EF16F0BD
:102DA800D8EF16F0E6EF16F0030EA96EA69EA69CC5
:102DB800A680A6B0E2EF16F0E4EF16F0DDEF16F00D
:102DC800A8CF3CF0010E3E64ECEF16F0EEEF16F0E3
:102DD800FCEF16F0040EA96EA69EA69CA680A6B0CF
:102DE800F8EF16F0FAEF16F0F3EF16F0A8CF3EF072
:102DF8000E0E336402EF17F004EF17F00CEF17F024
:102E0800630E33640AEF17F00CEF17F01AEF17F0A0
:102E1800050EA96EA69EA69CA680A6B016EF17F072
:102E280018EF17F011EF17F0A8CF33F02F50D8B4E0
:102E380020EF17F022EF17F02AEF17F0280E2F6473
:102E480028EF17F02AEF17F036EF14F0060EA96EE8
:102E5800A69EA69CA680A6B034EF17F036EF17F012
:102E68002FEF17F0A8CF2FF036EF14F0BEEF02F0D7
:102E7800000E00019F6F000E9E6FF288130E2F64E4
:102E880048EF17F04AEF17F050EF17F02F50EC0FFC
:102E9800216E2F50EC0F226E140E2F6056EF17F094
:102EA80058EF17F012EF18F02F501408216E2F501A
:102EB8001408226E12EF18F0B7C01AF0000EC56F92
:102EC800140E2F646AEF17F06CEF17F06FEF17F01E
:102ED8001A5021241A6E140E2F6075EF17F077EF31
:102EE80017F083EF17F01A50215CD8B07EEF17F077
:102EF80080EF17F083EF17F021501A5C1A6E155007
:102F0800D8B489EF17F08BEF17F027EF18F0B75107
:102F1800FF0A1A6E1A281A6E010EC56F140E2F6456
:102F280098EF17F09AEF17F09DEF17F021501A5C01
:102F38001A6E140E2F60A3EF17F0A5EF17F027EF06
:102F480018F01A5021241A6E27EF18F0B739E846FE
:102F58001F0B1A6E1A501F0B1A6E15A0B6EF17F03A
:102F6800B8EF17F0BBEF17F01A50200F1A6E15A222
:102F7800C0EF17F0C2EF17F0C5EF17F01A50400F67
:102F88001A6E15A4CAEF17F0CCEF17F0CFEF17F0B1
:102F98001A50800F1A6E140E2F64D5EF17F0D7EF62
:102FA80017F0DAEF17F01A5021241A6E140E2F605A
:102FB800E0EF17F0E2EF17F0EEEF17F01A50215C90
:102FC800D8B0E9EF17F0EBEF17F0EEEF17F021505C
:102FD8001A5C1A6E000EC56F070E1564F6EF17F02F
:102FE800F8EF17F027EF18F01A1E1A281A6E010EBC
:102FF800C56F140E2F6403EF18F005EF18F008EFF3
:1030080018F021501A5C1A6E140E2F600EEF18F08B
:1030180010EF18F027EF18F0A5EF17F08251496E5E
:103028004A6A4A50000AD8B41CEF18F027EF18F083
:103038004950100AD8B460EF17F0380AD8B4AAEF8C
:1030480017F027EF18F0000E9F6F000E9E6FDFEF4E
:1030580018F0B6C019F0000EC46F140E2F6437EFC5
:1030680018F039EF18F03CEF18F019502224196EB7
:10307800140E2F6042EF18F044EF18F050EF18F0DC
:103088001950225CD8B04BEF18F04DEF18F050EF04
:1030980018F02250195C196E1450D8B456EF18F075
:1030A80058EF18F0F4EF18F0B651FF0A196E192806
:1030B800196E010EC46F140E2F6465EF18F067EFD8
:1030C80018F06AEF18F02250195C196E140E2F6070
:1030D80070EF18F072EF18F0F4EF18F0195022247E
:1030E800196EF4EF18F0B639E8461F0B196E19502F
:1030F8001F0B196E14A083EF18F085EF18F088EFF6
:1031080018F01950200F196E14A28DEF18F08FEFD8
:1031180018F092EF18F01950400F196E14A497EF99
:1031280018F099EF18F09CEF18F01950800F196EED
:10313800140E2F64A2EF18F0A4EF18F0A7EF18F000
:1031480019502224196E140E2F60ADEF18F0AFEF4E
:1031580018F0BBEF18F01950225CD8B0B6EF18F091
:10316800B8EF18F0BBEF18F02250195C196E000E7A
:10317800C46F070E1464C3EF18F0C5EF18F0F4EF2E
:1031880018F0191E1928196E010EC46F140E2F6439
:10319800D0EF18F0D2EF18F0D5EF18F02250195CE4
:1031A800196E140E2F60DBEF18F0DDEF18F0F4EF56
:1031B80018F072EF18F07A51496E4A6A4A50000ABC
:1031C800D8B4E9EF18F0F4EF18F04950100AD8B461
:1031D8002DEF18F0380AD8B477EF18F0F4EF18F09C
:1031E800000E9F6F000E9E6F2450D8A4FEEF18F0BB
:1031F80000EF19F042EF19F02350D8A406EF19F0A8
:1032080008EF19F042EF19F01D50D8A40EEF19F08D
:1032180010EF19F042EF19F01E50D8A416EF19F06C
:1032280018EF19F042EF19F01850D8A41EEF19F052
:1032380020EF19F042EF19F01750D8A426EF19F033
:1032480028EF19F042EF19F019501AC049F04A6AEC
:103258004926000E4A224A344A3249324A344A320E
:1032680049324950376ED0513724376E3750010BE9
:10327800366ED8903730376E37C0D0F02404D8B4C3
:1032880048EF19F04AEF19F052EF19F01D50D8B471
:1032980050EF19F052EF19F062EF19F01E50D8A450
:1032A80058EF19F05AEF19F062EF19F02350D8B41B
:1032B80060EF19F062EF19F06AEF19F01850D8B4FE
:1032C80068EF19F06AEF19F084EF19F01950010B43
:1032D800C26FC4C035F0D05119C049F0D8904932F6
:1032E80049C04AF04B6A4A26000E4B224B344B30F9
:1032F8004D6E4A304C6E4C50376ED8901930D06FA6
:103308002304D8B48AEF19F08CEF19F094EF19F070
:103318001E50D8B492EF19F094EF19F0A4EF19F0F9
:103328001D50D8A49AEF19F09CEF19F0A4EF19F0EA
:103338002450D8B4A2EF19F0A4EF19F0ACEF19F0AB
:103348001750D8B4AAEF19F0ACEF19F0C6EF19F07E
:103358001A50010BC36FC5C035F0D0511AC049F0DF
:10336800D890493249C04AF04B6A4A26000E4B228F
:103378004B344B304D6E4A304C6E4C50376ED890B3
:103388001A30D06F1D50D8A4CCEF19F0CEEF19F039
:10339800D6EF19F02404D8A4D4EF19F0D6EF19F019
:1033A800EAEF19F01E50D8A4DCEF19F0DEEF19F09F
:1033B800E6EF19F02304D8A4E4EF19F0E6EF19F0CA
:1033C800EAEF19F0010ECE6FECEF19F0000ECE6F98
:1033D800000E9F6F000E9E6F1200F288000E000113
:1033E8009F6F000E9E6F3E50D8A4FDEF19F0FFEFBF
:1033F80019F0D1EF1BF0DD2B3D50D8B406EF1AF0D1
:1034080008EF1AF00BEF1AF03CC00BF00C6A3D50B5
:10341800D8A411EF1AF013EF1AF01EEF1AF03B5070
:10342800D8B419EF1AF01BEF1AF01EEF1AF03AC0D1
:103438000BF00C6A3D50D8A424EF1AF026EF1AF0CE
:1034480031EF1AF03950D8B42CEF1AF02EEF1AF0E9
:1034580031EF1AF038C00BF00C6A3D50D8A437EFA2
:103468001AF039EF1AF0D1EF1AF03950D8A43FEF1B
:103478001AF041EF1AF0D1EF1AF03B50D8A447EFF9
:103488001AF049EF1AF0D1EF1AF037503724326E9C
:103498003604D8A452EF1AF054EF1AF05BEF1AF082
:1034A8003250FE0B326E3228326E5EEF1AF0325016
:1034B800FE0B326E3504D8A464EF1AF066EF1AF0EA
:1034C8006BEF1AF040503224DE6F79EF1AF0325069
:1034D800405CDE6F3250405CD8B075EF1AF077EF81
:1034E8001AF079EF1AF0000EDE6F000E9F6F000ED3
:1034F8009E6FFB0E3424516E526AFF0E52223750D3
:10350800536E546A5150535C5450800A556E525051
:10351800800A5558D8A093EF1AF095EF1AF0AEEF3D
:103528001AF03750516E526A3450536E546A050E71
:103538005326000E54225150535C5450800A556E45
:103548005250800A5558D8B0ACEF1AF0AEEF1AF0C6
:10355800D1EF1AF00BC031F04050140DF3CF49F001
:10356800F4CF4AF0000E4C6E640E4B6EAEEC21F0B8
:1035780049C098F04AC099F00001DE51640DF3CFBC
:1035880049F0F4CF4AF098C04BF099C04CF0AEEC3B
:1035980021F049C00BF04AC00CF0FD0E3424516EE6
:1035A800526AFF0E52223750536E546A5150535C80
:1035B8005450800A556E5250800A5558D8A0E7EFEB
:1035C8001AF0E9EF1AF002EF1BF03750516E526A09
:1035D8003450536E546A030E5326000E5422515031
:1035E800535C5450800A556E5250800A5558D8B0D2
:1035F80000EF1BF002EF1BF052EF1BF03150516E41
:10360800526A0B50515C0C505258D8B00EEF1BF058
:1036180010EF1BF02AEF1BF031500B5C516E000EBF
:103628000C58526E525009E1060E515CD8A01FEF9B
:103638001BF021EF1BF02AEF1BF03150050F316E04
:1036480031C00BF00C6A000E0001DD6F31500B5CCD
:10365800000E0C58D8B033EF1BF035EF1BF08AEF93
:103668001BF03150516E526A0B50515E0C50525A39
:10367800525009E1060E515CD8A045EF1BF047EF08
:103688001BF08AEF1BF03150FB0F316E31C00BF08D
:103698000C6A000E0001DD6F8AEF1BF03750345CB6
:1036A800D8B059EF1BF05BEF1BF06EEF1BF0020E6A
:1036B8000001DD6562EF1BF064EF1BF06EEF1BF09D
:1036C800FD0E0B240B6EFF0E0C200C6E0BC031F0A0
:1036D800000EDD6F3450375CD8B075EF1BF077EF14
:1036E8001BF08AEF1BF0020E0001DD657EEF1BF078
:1036F80080EF1BF08AEF1BF0030E0B240B6E000EFD
:103708000C200C6E0BC031F04DEF1BF00C5009E192
:10371800640E0B5CD8A093EF1BF095EF1BF099EFAC
:103728001BF0000E0C6E630E0B6E0C5007E10F0EB3
:103738000B5CD8B0A2EF1BF0A4EF1BF0A8EF1BF0B6
:10374800000E0C6E0F0E0B6E0C5009E15E0E0B5C3A
:10375800D8A0B1EF1BF0B3EF1BF0BAEF1BF0020ECD
:1037680000019B6F580E9A6FCBEF1BF00BC049F00E
:103778000CC04AF0FF0E4C6E9C0E4B6E35EC24F0DC
:10378800100E492400019A6F270E4A209B6F9A1F3A
:103798009B1F9AC0E0F09B51DF6F3E04D8A4D7EF7F
:1037A8001BF0D9EF1BF004EF1CF033C00BF00C6AD0
:1037B8000C5009E15E0E0B5CD8A0E5EF1BF0E7EFBB
:1037C8001BF0EDEF1BF0020E9B6F580E9A6FFEEF89
:1037D8001BF00BC049F00CC04AF0FF0E4C6E9C0E5B
:1037E8004B6E35EC24F0100E492400019A6F270E19
:1037F8004A209B6F9A1F9B1F9AC0E0F09B51DF6F76
:10380800000E9F6F000E9E6F1200506E000E116E1C
:10381800000E106E000E0F6E000E0E6E000E0D6E76
:1038280099EF1DF0000E00019F6F000E9E6F4D0472
:10383800D8A421EF1CF023EF1CF05CEF1CF05BEC2C
:1038480024F01350D8A42BEF1CF02DEF1CF04FEFF1
:103858001CF0330ED7EC23F0080E496E010E6AEC0B
:1038680022F0F288080E496E010EC8EC20F000091B
:10387800D8A441EF1CF043EF1CF049EF1CF0000EF8
:103888001D6E000E236E4FEF1CF01D50100F1D6EA5
:103898001D50F00B1D6E1304D8A455EF1CF057EF04
:1038A8001CF05CEF1CF01D281D6E1D500F0B1D6ECB
:1038B800020E4D18D8A463EF1CF065EF1CF0B2EFB0
:1038C8001DF048EC24F01250D8A46DEF1CF06FEFF7
:1038D8001CF091EF1CF0330EB2EC23F0080E496E89
:1038E800010E10EC22F0F288080E496E010E4FEC22
:1038F80020F00009D8A483EF1CF085EF1CF08BEFB3
:103908001CF0000E1E6E000E236E91EF1CF01E5070
:10391800100F1E6E1E50F00B1E6E1204D8A497EFE7
:103928001CF099EF1CF0B2EF1DF01E281E6E1E5001
:103938000F0B1E6EB2EF1DF0000E00019F6F000E00
:103948009E6F4D04D8A4ABEF1CF0ADEF1CF0CDEF8B
:103958001CF05BEC24F01350D8A4B5EF1CF0B7EFC3
:103968001CF0BEEF1CF0CC0ED7EC23F0440ED7ECC5
:1039780023F0F2881304D8A4C4EF1CF0C6EF1CF09F
:10398800C8EF1CF01D281D6E000E0001956F020E79
:10399800946F020E4D18D8A4D4EF1CF0D6EF1CF08B
:1039A800B2EF1DF048EC24F01250D8A4DEEF1CF062
:1039B800E0EF1CF0E7EF1CF0CC0EB2EC23F0440E65
:1039C800B2EC23F0F2881204D8A4EDEF1CF0EFEF6C
:1039D8001CF0F1EF1CF01E281E6E000E0001936F04
:1039E800020E926FB2EF1DF0000E00019F6F000EE5
:1039F8009E6F4D04D8A403EF1DF005EF1DF047EFAF
:103A08001DF05BEC24F01350D8A40DEF1DF00FEF60
:103A18001DF036EF1DF0CC0ED7EC23F0BE0ED7EC20
:103A280023F0090E496E000E6AEC22F0F288090EA6
:103A3800496E000EC8EC20F00009D8A426EF1DF04E
:103A480028EF1DF030EF1DF0000E1D6E69C0B7F0B5
:103A58006AC015F036EF1DF01D50100F1D6E1D5079
:103A6800F00B1D6E1304D8A43CEF1DF03EEF1DF0C3
:103A780045EF1DF01D281D6E1D500F0B1D6E020E0B
:103A88001C6E020E1C6E020E4D18D8A44EEF1DF0CF
:103A980050EF1DF0B2EF1DF048EC24F01250D8A4FE
:103AA80058EF1DF05AEF1DF081EF1DF0CC0EB2EC6F
:103AB80023F0BE0EB2EC23F0090E496E000E10EC96
:103AC80022F0F288090E496E000E4FEC20F0000932
:103AD800D8A471EF1DF073EF1DF07BEF1DF0000E01
:103AE8001E6E60C0B6F061C014F081EF1DF01E506C
:103AF800100F1E6E1E50F00B1E6E000E00019F6F01
:103B0800000E9E6F1204D8A48CEF1DF08EEF1DF0EE
:103B180095EF1DF01E281E6E1E500F0B1E6E020E16
:103B28001C6E020E1B6EB2EF1DF050504E6E4F6AA7
:103B38004F50000AD8B4A3EF1DF0B2EF1DF04E505D
:103B4800010AD8B416EF1CF0030AD8B4A0EF1CF091
:103B5800010AD8B4F8EF1CF0B2EF1DF03F0E926ED8
:103B68001200000E00019F6F000E9E6F000E266E61
:103B7800070E2664C2EF1DF0C4EF1DF0C6EF1DF05E
:103B88001CEF1EF026C0A9FFA69EA69CA680A6B084
:103B9800D0EF1DF0D2EF1DF0CBEF1DF0F0EF1DF0D0
:103BA800A8CF40F019EF1EF0A8CF3AF019EF1EF099
:103BB800A8CF38F019EF1EF0A8CF3CF019EF1EF08F
:103BC800A8CF3EF019EF1EF0A8CF33F019EF1EF082
:103BD800A8CF2FF019EF1EF02650536E546A545098
:103BE800000AD8B4FAEF1DF019EF1EF05350000A7E
:103BF800D8B4D4EF1DF0010AD8B4D8EF1DF0030AE9
:103C0800D8B4DCEF1DF0010AD8B4E0EF1DF0070AC4
:103C1800D8B4E4EF1DF0010AD8B4E8EF1DF0030AA8
:103C2800D8B4ECEF1DF019EF1EF0262ABCEF1DF0FA
:103C3800000E266E000E00019F6F000E9E6F3F0E55
:103C4800926E010E936E000E946E000E0F01386F87
:103C5800000E396F000E3A6F000E806E000E816EF6
:103C68008268000E00019F6F000E9E6FD59ED58C56
:103C7800D59AD598D596D550F80B0209D56E000E71
:103C8800D76E060ED66EF294F28AF194D08EF28E2A
:103C9800F28C80B652EF1EF054EF1EF092EF1EF039
:103CA80080B859EF1EF05BEF1EF092EF1EF080BA5D
:103CB80060EF1EF062EF1EF092EF1EF0000E256E10
:103CC800090E25646AEF1EF06CEF1EF06EEF1EF011
:103CD8007BEF1EF0C80E00D0E82EFDD7252A090E6E
:103CE800256479EF1EF07BEF1EF06EEF1EF080B6B4
:103CF80080EF1EF082EF1EF092EF1EF080B887EF83
:103D08001EF089EF1EF092EF1EF080BA8EEF1EF0C3
:103D180090EF1EF092EF1EF0C0EC02F0000E0001D2
:103D28009F6F000E9E6FF28CF298F292F18C3F0E0C
:103D3800CD16CF0ECD16CD96CD929E909D909F809C
:103D4800780ECE6EEC0ECF6E82681E0E816E000E5F
:103D58009F6F000E9E6F010E4D6E010E09EC1CF058
:103D6800020E4D6E010E09EC1CF0D58EF288120081
:103D7800F288000E00019F6F000E9E6F80B6C7EF9D
:103D88001EF0C9EF1EF0E4EF1EF080A8CEEF1EF083
:103D9800D0EF1EF0E4EF1EF080AAD5EF1EF0D7EFAB
:103DA8001EF0E4EF1EF0C80E00D0E82EFDD780B656
:103DB800E0EF1EF0E2EF1EF0E4EF1EF00001E22B50
:103DC80080B8E9EF1EF0EBEF1EF006EF1FF080A6BB
:103DD800F0EF1EF0F2EF1EF006EF1FF080AAF7EFEB
:103DE8001EF0F9EF1EF006EF1FF0C80E00D0E82E07
:103DF800FDD780B802EF1FF004EF1FF006EF1FF0A9
:103E08000001E12B80BA0BEF1FF00DEF1FF029EF37
:103E18001FF080A812EF1FF014EF1FF029EF1FF01A
:103E280080A619EF1FF01BEF1FF029EF1FF0C80E37
:103E380000D0E82EFDD780BA24EF1FF026EF1FF040
:103E480029EF1FF000019C4B9D2B050E0001E26538
:103E580030EF1FF032EF1FF03DEF1FF080A637EF75
:103E68001FF039EF1FF03DEF1FF0010E3F6E000EFF
:103E7800E26F050EE16543EF1FF045EF1FF050EFCD
:103E88001FF080A84AEF1FF04CEF1FF050EF1FF013
:103E9800020E3F6E000EE16F9DBF5CEF1FF09D515B
:103EA80009E1040E9C5DD8A05CEF1FF05EEF1FF0E7
:103EB800A7EF1FF080AA63EF1FF065EF1FF0A7EFD1
:103EC8001FF09DBF73EF1FF09D5107E1960E9C5D9B
:103ED800D8B071EF1FF073EF1FF075EF1FF0040EED
:103EE8003F6E9DBF83EF1FF05F0E9C5D010E9D59D5
:103EF800D8B081EF1FF083EF1FF093EF1FF09DBF45
:103F08008FEF1FF09D5109E1960E9C5DD8A08FEFB1
:103F18001FF091EF1FF093EF1FF0080E3F6E9DBF4B
:103F28009FEF1FF05F0E9C5D010E9D59D8A09FEF7B
:103F38001FF0A1EF1FF0A3EF1FF0100E3F6E000E51
:103F48009D6F000E9C6F000E9F6F000E9E6F1200FB
:103F58004B6EFFEF1FF0C00E0001D76F4CEF20F043
:103F6800F90E0001D76F4CEF20F0A40E0001D76FB7
:103F78004CEF20F0B00E0001D76F4CEF20F0990EF7
:103F88000001D76F4CEF20F0920E0001D76F4CEF75
:103F980020F0820E0001D76F4CEF20F0F80E0001E0
:103FA800D76F4CEF20F0800E0001D76F4CEF20F058
:103FB800900E0001D76F4CEF20F0A00E0001D76FD4
:103FC8004CEF20F0830E0001D76F4CEF20F0860EE7
:103FD8000001D76F4CEF20F0A10E0001D76F4CEF16
:103FE80020F0840E0001D76F4CEF20F08E0E0001F8
:103FF800D76F4CEF20F04B50496E4A6A4A50000A7E
:10400800D8B409EF20F04CEF20F04950000AD8B49A
:10401800AFEF1FF0010AD8B4B4EF1FF0030AD8B409
:10402800B9EF1FF0010AD8B4BEEF1FF0070AD8B4E1
:10403800C3EF1FF0010AD8B4C8EF1FF0030AD8B4C1
:10404800CDEF1FF0010AD8B4D2EF1FF00F0AD8B491
:10405800D7EF1FF0010AD8B4DCEF1FF0030AD8B479
:10406800E1EF1FF0010AD8B4E6EF1FF0070AD8B451
:10407800EBEF1FF0010AD8B4F0EF1FF0030AD8B431
:10408800F5EF1FF0010AD8B4FAEF1FF04CEF20F05B
:104098000001D75112004A6E8C0E0001A66F000E67
:1040A800A76F4904496E000E0D6EA4EF20F04A5028
:1040B800D8A461EF20F063EF20F06CEF20F0600EE1
:1040C8000D24D96EDA6A000EDA22DF500001A26FE1
:1040D8004A04D8A472EF20F074EF20F07DEF20F0AE
:1040E8007A0E0D24D96EDA6A000EDA22DF5000014A
:1040F800A26F000E0E6E070E0E6485EF20F087EF9C
:1041080020F089EF20F0A3EF20F00001A751010B68
:10411800A06FD890A733A251010BA16FD890A233FA
:10412800A151A0190009D8B49CEF20F09EEF20F00F
:10413800A0EF20F0A651A71B0E2A7FEF20F00D2A32
:1041480049500D5CD8A0ABEF20F0ADEF20F05BEF4D
:1041580020F04A50D8A4B3EF20F0B5EF20F0B9EF23
:1041680020F000016851A75DA76F4A04D8A4BFEFEB
:1041780020F0C1EF20F0C5EF20F000018151A75DCC
:10418800A76F0001A75112004A6E8C0E0001A66F9E
:10419800000EA86F4904496E000E0D6E1DEF21F048
:1041A8004A50D8A4DAEF20F0DCEF20F0E5EF20F059
:1041B800690E0D24D96EDA6A000EDA22DF5000018A
:1041C800A56F4A04D8A4EBEF20F0EDEF20F0F6EF4E
:1041D80020F0820E0D24D96EDA6A000EDA22DF5042
:1041E8000001A56F000E0E6E070E0E64FEEF20F0A4
:1041F80000EF21F002EF21F01CEF21F00001A8519F
:10420800010BA36FD890A833A551010BA46FD890C8
:10421800A533A451A3190009D8B415EF21F017EF5D
:1042280021F019EF21F0A651A81B0E2AF8EF20F073
:104238000D2A49500D5CD8A024EF21F026EF21F07B
:10424800D4EF20F04A50D8A42CEF21F02EEF21F023
:1042580032EF21F000017151A85DA86F4A04D8A47B
:1042680038EF21F03AEF21F03EEF21F000018951BB
:10427800A85DA86F0001A85112004B6E76EF21F0DF
:10428800C00E0001D76FABEF21F0F90E0001D76F18
:10429800ABEF21F0A40E0001D76FABEF21F0B00E09
:1042A8000001D76FABEF21F0990E0001D76FABEF8C
:1042B80021F0920E0001D76FABEF21F0820E0001C2
:1042C800D76FABEF21F0F80E0001D76FABEF21F0FD
:1042D800800E0001D76FABEF21F0900E0001D76F71
:1042E800ABEF21F04B50496E4A6A4A50000AD8B4E5
:1042F80080EF21F0ABEF21F04950000AD8B444EF29
:1043080021F0010AD8B449EF21F0030AD8B44EEFDE
:1043180021F0010AD8B453EF21F0070AD8B458EFB6
:1043280021F0010AD8B45DEF21F0030AD8B462EF96
:1043380021F0010AD8B467EF21F00F0AD8B46CEF66
:1043480021F0010AD8B471EF21F0ABEF21F00001A0
:10435800D7511200000E4E6E4CBEB7EF21F0B5EFEC
:1043680021F0BDEF21F04B6C4C1ED8B04C2A010E49
:104378004E6E4ABEC4EF21F0C2EF21F0CAEF21F021
:10438800496C4A1ED8B04A2A010E4E1A000E506EC9
:10439800000E4F6E4B504C10D8B4D5EF21F0D7EF2C
:1043A80021F0FFEF21F0010E4D6EDFEF21F0D890E4
:1043B8004B364C364D2A4CAEE4EF21F0E6EF21F0B7
:1043C800DBEF21F0D8904F3650364B50495C4C50BB
:1043D8004A58D8A0F2EF21F0F4EF21F0F9EF21F0DC
:1043E8004B50495E4C504A5A4F80D8904C324B3211
:1043F8004D2EE6EF21F04E50D8B405EF22F007EF2E
:1044080022F00BEF22F04F6C501ED8B0502A4FC04C
:1044180049F050C04AF012004C6E000E116E60EF69
:1044280022F0000E0001AA6F000E106E070E106435
:1044380020EF22F022EF22F024EF22F03BEF22F0CF
:104448006EEC24F010C04AF0ACC04BF04A2A2FEFB3
:1044580022F0D8904B364A2E2DEF22F04B50000117
:10446800AC6FAA51AC25AA6F102A1AEF22F04C5053
:10447800D8A441EF22F043EF22F04DEF22F0600E76
:104488001124D96EDA6A000EDA22AAC0DFFF000E04
:10449800AC6F4C04D8A453EF22F055EF22F05DEF37
:1044A80022F07A0E1124D96EDA6A000EDA22AAC036
:1044B800DFFF000EAC6F112A4950115CD8A067EFDE
:1044C80022F069EF22F015EF22F012004C6E000E78
:1044D800116EBAEF22F0000E0001AD6F000E106EE3
:1044E800070E10647AEF22F07CEF22F07EEF22F0C4
:1044F80095EF22F081EC24F010C04AF0AFC04BF0E9
:104508004A2A89EF22F0D8904B364A2E87EF22F0BC
:104518004B500001AF6FAD51AF25AD6F102A74EF4E
:1045280022F04C50D8A49BEF22F09DEF22F0A7EF89
:1045380022F0690E1124D96EDA6A000EDA22ADC0B3
:10454800DFFF000EAF6F4C04D8A4ADEF22F0AFEF41
:1045580022F0B7EF22F0820E1124D96EDA6A000E2B
:10456800DA22ADC0DFFF000EAF6F112A4950115C8F
:10457800D8A0C1EF22F0C3EF22F06FEF22F01200B3
:10458800000E4E6E4ABECDEF22F0CBEF22F0D3EFF5
:1045980022F0496C4A1ED8B04A2A010E4E6E4CBE13
:1045A800DAEF22F0D8EF22F0DEEF22F04B6C4C1E4F
:1045B800D8B04C2A4B504C10D8B4E5EF22F0E7EFB6
:1045C80022F00BEF23F0010E4D6EEFEF22F0D890A2
:1045D8004B364C364D2A4CAEF4EF22F0F6EF22F073
:1045E800EBEF22F04B50495C4C504A58D8A0FFEFF3
:1045F80022F001EF23F005EF23F04B50495E4C50B9
:104608004A5AD8904C324B324D2EF6EF22F04E508B
:10461800D8B411EF23F013EF23F017EF23F0496C10
:104628004A1ED8B04A2A49C049F04AC04AF0120086
:104638009EA021EF23F023EF23F046EF23F09D9077
:10464800F2889E900C5009E10F0E0B5CD8A02FEF5A
:1046580023F031EF23F042EF23F0818A060EE82E93
:10466800FED700D00C5007E15F0E0B5CD8B03FEFCF
:1046780023F041EF23F042EF23F0819A00019E4B93
:104688009F2BF288F2A24BEF23F04DEF23F06AEF55
:1046980023F000019FBF5AEF23F0110E9E5D270EF5
:1046A8009F59D8A05AEF23F05CEF23F05FEF23F077
:1046B800D18060EF23F0D1909D90F288F2929E9085
:1046C800E0C0CEFFDFC0CFFFCD809D8057921100A4
:1046D800546E54C049F04A6A000E4C6E0A0E4B6E76
:1046E800AEEC21F049500001D96F54C049F04A6A34
:1046F800000E4C6E0A0E4B6EC4EC22F049500001BD
:10470800D86F010E5124D96EDA6A000EDA22D95117
:1047180041EC21F0DF6E010E5224D96EDA6A000EE8
:10472800DA220001D85141EC21F0DF6E5350D8A4B1
:10473800A0EF23F0A2EF23F0B1EF23F0010E5224F3
:10474800D96EDA6A000EDA22010E5224E16EE26AAC
:10475800000EE222E750800FDF6E1200496E000E55
:104768000F6E070E0F64BBEF23F0BDEF23F0BFEF12
:1047780023F0D6EF23F04950010B0001AB6FAB05D6
:10478800D8A4C9EF23F0CBEF23F0CFEF23F094ECBC
:1047980024F0D1EF23F09FEC24F0D89049320F2A6F
:1047A800B5EF23F01200496E000E0F6E070E0F646E
:1047B800E0EF23F0E2EF23F0E4EF23F0FBEF23F048
:1047C8004950010B0001AE6FAE05D8A4EEEF23F0FF
:1047D800F0EF23F0F4EF23F0AAEC24F0F6EF23F047
:1047E800B5EC24F0D89049320F2ADAEF23F0120002
:1047F800800EF66E490EF76E000EF86E0900F5CFC2
:10480800E7F00900F5CFE8F000EE60F0830EEE6AFD
:10481800E806FDE100EE01F0400EEE6AE806FDE173
:1048280057905792000EF86E000134EF14F04A6E5C
:104838004AC0A9FF49C0A8FFA69CA69EA696A68422
:10484800F29E550EA76EAA0EA76EA682F28EF28C65
:10485800A694A6B232EF24F034EF24F02DEF24F022
:10486800120049504B02F3CF4DF0F4CF4EF04950AF
:104878004C02F3504E264A504B02F3504E264DC080
:1048880049F04EC04AF0120092928092A00EE82E93
:10489800FED79282170EE82EFED700F0000E80B2E7
:1048A800010E126E880EE82EFED700D012009290EC
:1048B8008090A00EE82EFED79280170EE82EFED725
:1048C80000F0000E80B0010E136E880EE82EFED7A1
:1048D80000D012009292809200D000D000D0928234
:1048E800030EE82EFED7000E80B2010E0001AC6F59
:1048F800120EE82EFED700F012009290809000D0A1
:1049080000D000D09280030EE82EFED7000E80B0B3
:10491800010E0001AF6F120EE82EFED700F0120054
:104928009292809200D000D000D09282150EE82E8C
:10493800FED700F0120092928092140EE82EFED755
:104948009282030EE82EFED700F01200929080901B
:1049580000D000D000D09280150EE82EFED700F0CF
:10496800120092908090140EE82EFED79280030ECB
:0A497800E82EFED700F012009600B2
:020000040020DA
:08000000FFFFFFFFFFFFFFFF00
:020000040030CA
:0E000000FF210F3EFFBD85FF00800FE00F4087
:00000001FF
